{
  "_format": "hh-sol-artifact-1",
  "contractName": "EnsName",
  "sourceName": "src/backend/contracts/EnsName.sol",
  "abi": [
    {
      "inputs": [],
      "stateMutability": "nonpayable",
      "type": "constructor"
    },
    {
      "inputs": [
        {
          "internalType": "uint256",
          "name": "_itemId",
          "type": "uint256"
        }
      ],
      "name": "buyENS",
      "outputs": [],
      "stateMutability": "payable",
      "type": "function"
    },
    {
      "inputs": [
        {
          "internalType": "string",
          "name": "_name",
          "type": "string"
        },
        {
          "internalType": "uint256",
          "name": "_tokenId",
          "type": "uint256"
        }
      ],
      "name": "delistENS",
      "outputs": [],
      "stateMutability": "nonpayable",
      "type": "function"
    },
    {
      "inputs": [],
      "name": "ensContract",
      "outputs": [
        {
          "internalType": "contract IERC721",
          "name": "",
          "type": "address"
        }
      ],
      "stateMutability": "view",
      "type": "function"
    },
    {
      "inputs": [],
      "name": "itemCount",
      "outputs": [
        {
          "internalType": "uint256",
          "name": "",
          "type": "uint256"
        }
      ],
      "stateMutability": "view",
      "type": "function"
    },
    {
      "inputs": [
        {
          "internalType": "uint256",
          "name": "",
          "type": "uint256"
        }
      ],
      "name": "items",
      "outputs": [
        {
          "internalType": "uint256",
          "name": "itemId",
          "type": "uint256"
        },
        {
          "internalType": "string",
          "name": "name",
          "type": "string"
        },
        {
          "internalType": "uint256",
          "name": "tokenId",
          "type": "uint256"
        },
        {
          "internalType": "uint256",
          "name": "price",
          "type": "uint256"
        },
        {
          "internalType": "bool",
          "name": "listed",
          "type": "bool"
        },
        {
          "internalType": "address payable",
          "name": "seller",
          "type": "address"
        }
      ],
      "stateMutability": "view",
      "type": "function"
    },
    {
      "inputs": [
        {
          "internalType": "string",
          "name": "_name",
          "type": "string"
        },
        {
          "internalType": "uint256",
          "name": "_tokenId",
          "type": "uint256"
        },
        {
          "internalType": "uint256",
          "name": "_price",
          "type": "uint256"
        }
      ],
      "name": "listENS",
      "outputs": [],
      "stateMutability": "nonpayable",
      "type": "function"
    },
    {
      "stateMutability": "payable",
      "type": "receive"
    }
  ],
  "bytecode": "0x60a060405234801561001057600080fd5b507357f1887a8bf19b14fc0df6fd9b2acc9af147ea8573ffffffffffffffffffffffffffffffffffffffff1660808173ffffffffffffffffffffffffffffffffffffffff16815250506080516111db61007b600039600081816103ea015261072b01526111db6000f3fe6080604052600436106100595760003560e01c80634783de501461006557806350e4ec891461008e5780636881e763146100b75780636bfb0d01146100e2578063bfb231d21461010d578063f3eee3851461014f57610060565b3661006057005b600080fd5b34801561007157600080fd5b5061008c60048036038101906100879190610ab9565b61016b565b005b34801561009a57600080fd5b506100b560048036038101906100b09190610b28565b6102cb565b005b3480156100c357600080fd5b506100cc6103e8565b6040516100d99190610c03565b60405180910390f35b3480156100ee57600080fd5b506100f761040c565b6040516101049190610c2d565b60405180910390f35b34801561011957600080fd5b50610134600480360381019061012f9190610c48565b610412565b60405161014696959493929190610d39565b60405180910390f35b61016960048036038101906101649190610c48565b610503565b005b600081116101ae576040517f08c379a00000000000000000000000000000000000000000000000000000000081526004016101a590610ded565b60405180910390fd5b6000808154809291906101c090610e3c565b91905055506040518060c0016040528060005481526020018481526020018381526020018281526020016001151581526020013373ffffffffffffffffffffffffffffffffffffffff168152506001600080548152602001908152602001600020600082015181600001556020820151816001019080519060200190610247929190610886565b50604082015181600201556060820151816003015560808201518160040160006101000a81548160ff02191690831515021790555060a08201518160040160016101000a81548173ffffffffffffffffffffffffffffffffffffffff021916908373ffffffffffffffffffffffffffffffffffffffff160217905550905050505050565b6000808154809291906102dd90610e85565b91905055506040518060c001604052806000548152602001838152602001828152602001600081526020016000151581526020013373ffffffffffffffffffffffffffffffffffffffff168152506001600080548152602001908152602001600020600082015181600001556020820151816001019080519060200190610365929190610886565b50604082015181600201556060820151816003015560808201518160040160006101000a81548160ff02191690831515021790555060a08201518160040160016101000a81548173ffffffffffffffffffffffffffffffffffffffff021916908373ffffffffffffffffffffffffffffffffffffffff1602179055509050505050565b7f000000000000000000000000000000000000000000000000000000000000000081565b60005481565b600160205280600052604060002060009150905080600001549080600101805461043b90610ede565b80601f016020809104026020016040519081016040528092919081815260200182805461046790610ede565b80156104b45780601f10610489576101008083540402835291602001916104b4565b820191906000526020600020905b81548152906001019060200180831161049757829003601f168201915b5050505050908060020154908060030154908060040160009054906101000a900460ff16908060040160019054906101000a900473ffffffffffffffffffffffffffffffffffffffff16905086565b6000600160008381526020019081526020016000206040518060c00160405290816000820154815260200160018201805461053d90610ede565b80601f016020809104026020016040519081016040528092919081815260200182805461056990610ede565b80156105b65780601f1061058b576101008083540402835291602001916105b6565b820191906000526020600020905b81548152906001019060200180831161059957829003601f168201915b5050505050815260200160028201548152602001600382015481526020016004820160009054906101000a900460ff161515151581526020016004820160019054906101000a900473ffffffffffffffffffffffffffffffffffffffff1673ffffffffffffffffffffffffffffffffffffffff1673ffffffffffffffffffffffffffffffffffffffff16815250509050806060015134101561068d576040517f08c379a000000000000000000000000000000000000000000000000000000000815260040161068490610f5c565b60405180910390fd5b60008211801561069f57506000548211155b6106de576040517f08c379a00000000000000000000000000000000000000000000000000000000081526004016106d590610fc8565b60405180910390fd5b600115158160800151151514610729576040517f08c379a00000000000000000000000000000000000000000000000000000000081526004016107209061105a565b60405180910390fd5b7f000000000000000000000000000000000000000000000000000000000000000073ffffffffffffffffffffffffffffffffffffffff166323b872dd8260a001513384604001516040518463ffffffff1660e01b815260040161078e939291906110bc565b600060405180830381600087803b1580156107a857600080fd5b505af11580156107bc573d6000803e3d6000fd5b50505050600081608001901515908115158152505060008160a0015173ffffffffffffffffffffffffffffffffffffffff16346040516107fb90611124565b60006040518083038185875af1925050503d8060008114610838576040519150601f19603f3d011682016040523d82523d6000602084013e61083d565b606091505b5050905080610881576040517f08c379a000000000000000000000000000000000000000000000000000000000815260040161087890611185565b60405180910390fd5b505050565b82805461089290610ede565b90600052602060002090601f0160209004810192826108b457600085556108fb565b82601f106108cd57805160ff19168380011785556108fb565b828001600101855582156108fb579182015b828111156108fa5782518255916020019190600101906108df565b5b509050610908919061090c565b5090565b5b8082111561092557600081600090555060010161090d565b5090565b6000604051905090565b600080fd5b600080fd5b600080fd5b600080fd5b6000601f19601f8301169050919050565b7f4e487b7100000000000000000000000000000000000000000000000000000000600052604160045260246000fd5b61099082610947565b810181811067ffffffffffffffff821117156109af576109ae610958565b5b80604052505050565b60006109c2610929565b90506109ce8282610987565b919050565b600067ffffffffffffffff8211156109ee576109ed610958565b5b6109f782610947565b9050602081019050919050565b82818337600083830152505050565b6000610a26610a21846109d3565b6109b8565b905082815260208101848484011115610a4257610a41610942565b5b610a4d848285610a04565b509392505050565b600082601f830112610a6a57610a6961093d565b5b8135610a7a848260208601610a13565b91505092915050565b6000819050919050565b610a9681610a83565b8114610aa157600080fd5b50565b600081359050610ab381610a8d565b92915050565b600080600060608486031215610ad257610ad1610933565b5b600084013567ffffffffffffffff811115610af057610aef610938565b5b610afc86828701610a55565b9350506020610b0d86828701610aa4565b9250506040610b1e86828701610aa4565b9150509250925092565b60008060408385031215610b3f57610b3e610933565b5b600083013567ffffffffffffffff811115610b5d57610b5c610938565b5b610b6985828601610a55565b9250506020610b7a85828601610aa4565b9150509250929050565b600073ffffffffffffffffffffffffffffffffffffffff82169050919050565b6000819050919050565b6000610bc9610bc4610bbf84610b84565b610ba4565b610b84565b9050919050565b6000610bdb82610bae565b9050919050565b6000610bed82610bd0565b9050919050565b610bfd81610be2565b82525050565b6000602082019050610c186000830184610bf4565b92915050565b610c2781610a83565b82525050565b6000602082019050610c426000830184610c1e565b92915050565b600060208284031215610c5e57610c5d610933565b5b6000610c6c84828501610aa4565b91505092915050565b600081519050919050565b600082825260208201905092915050565b60005b83811015610caf578082015181840152602081019050610c94565b83811115610cbe576000848401525b50505050565b6000610ccf82610c75565b610cd98185610c80565b9350610ce9818560208601610c91565b610cf281610947565b840191505092915050565b60008115159050919050565b610d1281610cfd565b82525050565b6000610d2382610b84565b9050919050565b610d3381610d18565b82525050565b600060c082019050610d4e6000830189610c1e565b8181036020830152610d608188610cc4565b9050610d6f6040830187610c1e565b610d7c6060830186610c1e565b610d896080830185610d09565b610d9660a0830184610d2a565b979650505050505050565b7f50726963652073686f756c642062652067726561746572207468616e20300000600082015250565b6000610dd7601e83610c80565b9150610de282610da1565b602082019050919050565b60006020820190508181036000830152610e0681610dca565b9050919050565b7f4e487b7100000000000000000000000000000000000000000000000000000000600052601160045260246000fd5b6000610e4782610a83565b91507fffffffffffffffffffffffffffffffffffffffffffffffffffffffffffffffff821415610e7a57610e79610e0d565b5b600182019050919050565b6000610e9082610a83565b91506000821415610ea457610ea3610e0d565b5b600182039050919050565b7f4e487b7100000000000000000000000000000000000000000000000000000000600052602260045260246000fd5b60006002820490506001821680610ef657607f821691505b60208210811415610f0a57610f09610eaf565b5b50919050565b7f50726963652073656e74206973206e6f7420636f727265637400000000000000600082015250565b6000610f46601983610c80565b9150610f5182610f10565b602082019050919050565b60006020820190508181036000830152610f7581610f39565b9050919050565b7f57726f6e67206974656d49640000000000000000000000000000000000000000600082015250565b6000610fb2600c83610c80565b9150610fbd82610f7c565b602082019050919050565b60006020820190508181036000830152610fe181610fa5565b9050919050565b7f54686973206974656d20697320686173206e6f74206265656e206c697374656460008201527f20666f722073616c650000000000000000000000000000000000000000000000602082015250565b6000611044602983610c80565b915061104f82610fe8565b604082019050919050565b6000602082019050818103600083015261107381611037565b9050919050565b600061108582610bd0565b9050919050565b6110958161107a565b82525050565b60006110a682610b84565b9050919050565b6110b68161109b565b82525050565b60006060820190506110d1600083018661108c565b6110de60208301856110ad565b6110eb6040830184610c1e565b949350505050565b600081905092915050565b50565b600061110e6000836110f3565b9150611119826110fe565b600082019050919050565b600061112f82611101565b9150819050919050565b7f4661696c656420746f2073656e64204574686572000000000000000000000000600082015250565b600061116f601483610c80565b915061117a82611139565b602082019050919050565b6000602082019050818103600083015261119e81611162565b905091905056fea2646970667358221220687a9dea5b3645a1a0e8ab16e8b8fe20bbd55f70d506ce40ca5372bc4c7d54a864736f6c63430008090033",
  "linkReferences": {},
  "deployedLinkReferences": {}
}